{
  "address": "0x253809489609570E84140374Df70a0EE2933bABf",
  "abi": [
    {
      "inputs": [
        {
          "internalType": "address",
          "name": "vrfCoordinatorV2Plus",
          "type": "address"
        },
        {
          "internalType": "uint256",
          "name": "subscriptionId",
          "type": "uint256"
        }
      ],
      "stateMutability": "nonpayable",
      "type": "constructor"
    },
    {
      "inputs": [],
      "name": "ERC721EnumerableForbiddenBatchMint",
      "type": "error"
    },
    {
      "inputs": [
        {
          "internalType": "address",
          "name": "sender",
          "type": "address"
        },
        {
          "internalType": "uint256",
          "name": "tokenId",
          "type": "uint256"
        },
        {
          "internalType": "address",
          "name": "owner",
          "type": "address"
        }
      ],
      "name": "ERC721IncorrectOwner",
      "type": "error"
    },
    {
      "inputs": [
        {
          "internalType": "address",
          "name": "operator",
          "type": "address"
        },
        {
          "internalType": "uint256",
          "name": "tokenId",
          "type": "uint256"
        }
      ],
      "name": "ERC721InsufficientApproval",
      "type": "error"
    },
    {
      "inputs": [
        {
          "internalType": "address",
          "name": "approver",
          "type": "address"
        }
      ],
      "name": "ERC721InvalidApprover",
      "type": "error"
    },
    {
      "inputs": [
        {
          "internalType": "address",
          "name": "operator",
          "type": "address"
        }
      ],
      "name": "ERC721InvalidOperator",
      "type": "error"
    },
    {
      "inputs": [
        {
          "internalType": "address",
          "name": "owner",
          "type": "address"
        }
      ],
      "name": "ERC721InvalidOwner",
      "type": "error"
    },
    {
      "inputs": [
        {
          "internalType": "address",
          "name": "receiver",
          "type": "address"
        }
      ],
      "name": "ERC721InvalidReceiver",
      "type": "error"
    },
    {
      "inputs": [
        {
          "internalType": "address",
          "name": "sender",
          "type": "address"
        }
      ],
      "name": "ERC721InvalidSender",
      "type": "error"
    },
    {
      "inputs": [
        {
          "internalType": "uint256",
          "name": "tokenId",
          "type": "uint256"
        }
      ],
      "name": "ERC721NonexistentToken",
      "type": "error"
    },
    {
      "inputs": [
        {
          "internalType": "address",
          "name": "owner",
          "type": "address"
        },
        {
          "internalType": "uint256",
          "name": "index",
          "type": "uint256"
        }
      ],
      "name": "ERC721OutOfBoundsIndex",
      "type": "error"
    },
    {
      "inputs": [
        {
          "internalType": "address",
          "name": "have",
          "type": "address"
        },
        {
          "internalType": "address",
          "name": "want",
          "type": "address"
        }
      ],
      "name": "OnlyCoordinatorCanFulfill",
      "type": "error"
    },
    {
      "inputs": [
        {
          "internalType": "address",
          "name": "have",
          "type": "address"
        },
        {
          "internalType": "address",
          "name": "owner",
          "type": "address"
        },
        {
          "internalType": "address",
          "name": "coordinator",
          "type": "address"
        }
      ],
      "name": "OnlyOwnerOrCoordinator",
      "type": "error"
    },
    {
      "inputs": [],
      "name": "ZeroAddress",
      "type": "error"
    },
    {
      "anonymous": false,
      "inputs": [
        {
          "indexed": true,
          "internalType": "address",
          "name": "owner",
          "type": "address"
        },
        {
          "indexed": true,
          "internalType": "address",
          "name": "approved",
          "type": "address"
        },
        {
          "indexed": true,
          "internalType": "uint256",
          "name": "tokenId",
          "type": "uint256"
        }
      ],
      "name": "Approval",
      "type": "event"
    },
    {
      "anonymous": false,
      "inputs": [
        {
          "indexed": true,
          "internalType": "address",
          "name": "owner",
          "type": "address"
        },
        {
          "indexed": true,
          "internalType": "address",
          "name": "operator",
          "type": "address"
        },
        {
          "indexed": false,
          "internalType": "bool",
          "name": "approved",
          "type": "bool"
        }
      ],
      "name": "ApprovalForAll",
      "type": "event"
    },
    {
      "anonymous": false,
      "inputs": [
        {
          "indexed": false,
          "internalType": "uint256",
          "name": "_fromTokenId",
          "type": "uint256"
        },
        {
          "indexed": false,
          "internalType": "uint256",
          "name": "_toTokenId",
          "type": "uint256"
        }
      ],
      "name": "BatchMetadataUpdate",
      "type": "event"
    },
    {
      "anonymous": false,
      "inputs": [
        {
          "indexed": false,
          "internalType": "address",
          "name": "vrfCoordinator",
          "type": "address"
        }
      ],
      "name": "CoordinatorSet",
      "type": "event"
    },
    {
      "anonymous": false,
      "inputs": [
        {
          "indexed": false,
          "internalType": "address",
          "name": "owner",
          "type": "address"
        },
        {
          "indexed": false,
          "internalType": "uint256",
          "name": "tokenId",
          "type": "uint256"
        },
        {
          "indexed": false,
          "internalType": "string",
          "name": "luckLevel",
          "type": "string"
        }
      ],
      "name": "LuckyLevelCreated",
      "type": "event"
    },
    {
      "anonymous": false,
      "inputs": [
        {
          "indexed": false,
          "internalType": "uint256",
          "name": "_tokenId",
          "type": "uint256"
        }
      ],
      "name": "MetadataUpdate",
      "type": "event"
    },
    {
      "anonymous": false,
      "inputs": [
        {
          "indexed": false,
          "internalType": "address",
          "name": "owner",
          "type": "address"
        },
        {
          "indexed": false,
          "internalType": "uint256",
          "name": "tokenId",
          "type": "uint256"
        }
      ],
      "name": "NFTMinted",
      "type": "event"
    },
    {
      "anonymous": false,
      "inputs": [
        {
          "indexed": true,
          "internalType": "address",
          "name": "from",
          "type": "address"
        },
        {
          "indexed": true,
          "internalType": "address",
          "name": "to",
          "type": "address"
        }
      ],
      "name": "OwnershipTransferRequested",
      "type": "event"
    },
    {
      "anonymous": false,
      "inputs": [
        {
          "indexed": true,
          "internalType": "address",
          "name": "from",
          "type": "address"
        },
        {
          "indexed": true,
          "internalType": "address",
          "name": "to",
          "type": "address"
        }
      ],
      "name": "OwnershipTransferred",
      "type": "event"
    },
    {
      "anonymous": false,
      "inputs": [
        {
          "indexed": true,
          "internalType": "address",
          "name": "from",
          "type": "address"
        },
        {
          "indexed": true,
          "internalType": "address",
          "name": "to",
          "type": "address"
        },
        {
          "indexed": true,
          "internalType": "uint256",
          "name": "tokenId",
          "type": "uint256"
        }
      ],
      "name": "Transfer",
      "type": "event"
    },
    {
      "inputs": [],
      "name": "acceptOwnership",
      "outputs": [],
      "stateMutability": "nonpayable",
      "type": "function"
    },
    {
      "inputs": [
        {
          "internalType": "address",
          "name": "to",
          "type": "address"
        },
        {
          "internalType": "uint256",
          "name": "tokenId",
          "type": "uint256"
        }
      ],
      "name": "approve",
      "outputs": [],
      "stateMutability": "nonpayable",
      "type": "function"
    },
    {
      "inputs": [
        {
          "internalType": "address",
          "name": "owner",
          "type": "address"
        }
      ],
      "name": "balanceOf",
      "outputs": [
        {
          "internalType": "uint256",
          "name": "",
          "type": "uint256"
        }
      ],
      "stateMutability": "view",
      "type": "function"
    },
    {
      "inputs": [
        {
          "internalType": "uint256",
          "name": "tokenId",
          "type": "uint256"
        }
      ],
      "name": "getApproved",
      "outputs": [
        {
          "internalType": "address",
          "name": "",
          "type": "address"
        }
      ],
      "stateMutability": "view",
      "type": "function"
    },
    {
      "inputs": [
        {
          "internalType": "uint256",
          "name": "tokenId",
          "type": "uint256"
        }
      ],
      "name": "getLuckyLevel",
      "outputs": [
        {
          "internalType": "string",
          "name": "",
          "type": "string"
        }
      ],
      "stateMutability": "view",
      "type": "function"
    },
    {
      "inputs": [
        {
          "internalType": "uint256",
          "name": "tokenId",
          "type": "uint256"
        }
      ],
      "name": "getOwner",
      "outputs": [
        {
          "internalType": "address",
          "name": "",
          "type": "address"
        }
      ],
      "stateMutability": "view",
      "type": "function"
    },
    {
      "inputs": [
        {
          "internalType": "uint256",
          "name": "requestId",
          "type": "uint256"
        }
      ],
      "name": "getRequestIdToTokenId",
      "outputs": [
        {
          "internalType": "uint256",
          "name": "",
          "type": "uint256"
        }
      ],
      "stateMutability": "view",
      "type": "function"
    },
    {
      "inputs": [
        {
          "internalType": "address",
          "name": "owner",
          "type": "address"
        },
        {
          "internalType": "address",
          "name": "operator",
          "type": "address"
        }
      ],
      "name": "isApprovedForAll",
      "outputs": [
        {
          "internalType": "bool",
          "name": "",
          "type": "bool"
        }
      ],
      "stateMutability": "view",
      "type": "function"
    },
    {
      "inputs": [],
      "name": "name",
      "outputs": [
        {
          "internalType": "string",
          "name": "",
          "type": "string"
        }
      ],
      "stateMutability": "view",
      "type": "function"
    },
    {
      "inputs": [],
      "name": "owner",
      "outputs": [
        {
          "internalType": "address",
          "name": "",
          "type": "address"
        }
      ],
      "stateMutability": "view",
      "type": "function"
    },
    {
      "inputs": [
        {
          "internalType": "uint256",
          "name": "tokenId",
          "type": "uint256"
        }
      ],
      "name": "ownerOf",
      "outputs": [
        {
          "internalType": "address",
          "name": "",
          "type": "address"
        }
      ],
      "stateMutability": "view",
      "type": "function"
    },
    {
      "inputs": [
        {
          "internalType": "uint256",
          "name": "requestId",
          "type": "uint256"
        },
        {
          "internalType": "uint256[]",
          "name": "randomWords",
          "type": "uint256[]"
        }
      ],
      "name": "rawFulfillRandomWords",
      "outputs": [],
      "stateMutability": "nonpayable",
      "type": "function"
    },
    {
      "inputs": [
        {
          "internalType": "uint256",
          "name": "",
          "type": "uint256"
        }
      ],
      "name": "requestIdToTokenId",
      "outputs": [
        {
          "internalType": "uint256",
          "name": "",
          "type": "uint256"
        }
      ],
      "stateMutability": "view",
      "type": "function"
    },
    {
      "inputs": [],
      "name": "s_vrfCoordinator",
      "outputs": [
        {
          "internalType": "contract IVRFCoordinatorV2Plus",
          "name": "",
          "type": "address"
        }
      ],
      "stateMutability": "view",
      "type": "function"
    },
    {
      "inputs": [],
      "name": "s_vrfCoordinatorV2Plus",
      "outputs": [
        {
          "internalType": "address",
          "name": "",
          "type": "address"
        }
      ],
      "stateMutability": "view",
      "type": "function"
    },
    {
      "inputs": [
        {
          "internalType": "string",
          "name": "_name",
          "type": "string"
        },
        {
          "internalType": "string",
          "name": "_description",
          "type": "string"
        },
        {
          "internalType": "string",
          "name": "_imageUri",
          "type": "string"
        },
        {
          "internalType": "string",
          "name": "_category",
          "type": "string"
        }
      ],
      "name": "safeMint",
      "outputs": [],
      "stateMutability": "nonpayable",
      "type": "function"
    },
    {
      "inputs": [
        {
          "internalType": "address",
          "name": "from",
          "type": "address"
        },
        {
          "internalType": "address",
          "name": "to",
          "type": "address"
        },
        {
          "internalType": "uint256",
          "name": "tokenId",
          "type": "uint256"
        }
      ],
      "name": "safeTransferFrom",
      "outputs": [],
      "stateMutability": "nonpayable",
      "type": "function"
    },
    {
      "inputs": [
        {
          "internalType": "address",
          "name": "from",
          "type": "address"
        },
        {
          "internalType": "address",
          "name": "to",
          "type": "address"
        },
        {
          "internalType": "uint256",
          "name": "tokenId",
          "type": "uint256"
        },
        {
          "internalType": "bytes",
          "name": "data",
          "type": "bytes"
        }
      ],
      "name": "safeTransferFrom",
      "outputs": [],
      "stateMutability": "nonpayable",
      "type": "function"
    },
    {
      "inputs": [
        {
          "internalType": "address",
          "name": "operator",
          "type": "address"
        },
        {
          "internalType": "bool",
          "name": "approved",
          "type": "bool"
        }
      ],
      "name": "setApprovalForAll",
      "outputs": [],
      "stateMutability": "nonpayable",
      "type": "function"
    },
    {
      "inputs": [
        {
          "internalType": "address",
          "name": "_vrfCoordinator",
          "type": "address"
        }
      ],
      "name": "setCoordinator",
      "outputs": [],
      "stateMutability": "nonpayable",
      "type": "function"
    },
    {
      "inputs": [
        {
          "internalType": "bytes4",
          "name": "interfaceId",
          "type": "bytes4"
        }
      ],
      "name": "supportsInterface",
      "outputs": [
        {
          "internalType": "bool",
          "name": "",
          "type": "bool"
        }
      ],
      "stateMutability": "view",
      "type": "function"
    },
    {
      "inputs": [],
      "name": "symbol",
      "outputs": [
        {
          "internalType": "string",
          "name": "",
          "type": "string"
        }
      ],
      "stateMutability": "view",
      "type": "function"
    },
    {
      "inputs": [
        {
          "internalType": "uint256",
          "name": "index",
          "type": "uint256"
        }
      ],
      "name": "tokenByIndex",
      "outputs": [
        {
          "internalType": "uint256",
          "name": "",
          "type": "uint256"
        }
      ],
      "stateMutability": "view",
      "type": "function"
    },
    {
      "inputs": [
        {
          "internalType": "uint256",
          "name": "",
          "type": "uint256"
        }
      ],
      "name": "tokenIdOfLuckyLevel",
      "outputs": [
        {
          "internalType": "string",
          "name": "",
          "type": "string"
        }
      ],
      "stateMutability": "view",
      "type": "function"
    },
    {
      "inputs": [
        {
          "internalType": "uint256",
          "name": "",
          "type": "uint256"
        }
      ],
      "name": "tokenIdToMetadata",
      "outputs": [
        {
          "internalType": "string",
          "name": "name",
          "type": "string"
        },
        {
          "internalType": "string",
          "name": "description",
          "type": "string"
        },
        {
          "internalType": "string",
          "name": "imageUri",
          "type": "string"
        },
        {
          "internalType": "string",
          "name": "category",
          "type": "string"
        }
      ],
      "stateMutability": "view",
      "type": "function"
    },
    {
      "inputs": [
        {
          "internalType": "uint256",
          "name": "",
          "type": "uint256"
        }
      ],
      "name": "tokenIdToOwner",
      "outputs": [
        {
          "internalType": "address",
          "name": "",
          "type": "address"
        }
      ],
      "stateMutability": "view",
      "type": "function"
    },
    {
      "inputs": [
        {
          "internalType": "address",
          "name": "owner",
          "type": "address"
        },
        {
          "internalType": "uint256",
          "name": "index",
          "type": "uint256"
        }
      ],
      "name": "tokenOfOwnerByIndex",
      "outputs": [
        {
          "internalType": "uint256",
          "name": "",
          "type": "uint256"
        }
      ],
      "stateMutability": "view",
      "type": "function"
    },
    {
      "inputs": [
        {
          "internalType": "uint256",
          "name": "tokenId",
          "type": "uint256"
        }
      ],
      "name": "tokenURI",
      "outputs": [
        {
          "internalType": "string",
          "name": "",
          "type": "string"
        }
      ],
      "stateMutability": "view",
      "type": "function"
    },
    {
      "inputs": [],
      "name": "totalSupply",
      "outputs": [
        {
          "internalType": "uint256",
          "name": "",
          "type": "uint256"
        }
      ],
      "stateMutability": "view",
      "type": "function"
    },
    {
      "inputs": [
        {
          "internalType": "address",
          "name": "from",
          "type": "address"
        },
        {
          "internalType": "address",
          "name": "to",
          "type": "address"
        },
        {
          "internalType": "uint256",
          "name": "tokenId",
          "type": "uint256"
        }
      ],
      "name": "transferFrom",
      "outputs": [],
      "stateMutability": "nonpayable",
      "type": "function"
    },
    {
      "inputs": [
        {
          "internalType": "address",
          "name": "to",
          "type": "address"
        }
      ],
      "name": "transferOwnership",
      "outputs": [],
      "stateMutability": "nonpayable",
      "type": "function"
    }
  ],
  "transactionHash": "0xaf2cfcf9de47942360f7ab69c59bb859870ca317965e171d9203bd3aee353488",
  "args": [
    "0x9DdfaCa8183c41ad55329BdeeD9F6A8d53168B1B",
    "44465163623070523247322816735192971151913530976085468914448470275447731303356"
  ],
  "numDeployments": 1,
  "solcInputHash": "690f59fc7a96f09ab9b0ed356fa75bff",
  "bytecode": "0x7f787d74caea10b2b357790d5b5247c2f63d1d91572a9846f780606e4d953677ae601155601280546001600160501b03191666010003002625a0179055600961012081815268476f6f645f4c75636b60b81b61014052608090815261016091825268486967685f4c75636b60b81b6101805260a091909152600b6101a09081526a5375706572625f4c75636b60a81b6101c05260c052600d6101e09081526c4d7974686963616c5f4c75636b60981b6102005260e052610260604052600a61022090815269263ab1b5bcafa9ba30b960b11b6102405261010052620000e99060139060056200031f565b50348015620000f757600080fd5b5060405162003346380380620033468339810160408190526200011a91620003f6565b813380600060405180604001604052806009815260200168131d58dade511bdb1b60ba1b81525060405180604001604052806002815260200161131160f21b81525081600090816200016d9190620004d9565b5060016200017c8282620004d9565b5050506001600160a01b038216620001db5760405162461bcd60e51b815260206004820152601860248201527f43616e6e6f7420736574206f776e657220746f207a65726f000000000000000060448201526064015b60405180910390fd5b600b80546001600160a01b0319166001600160a01b03848116919091179091558116156200020e576200020e8162000273565b5050506001600160a01b038116620002395760405163d92e233d60e01b815260040160405180910390fd5b600d80546001600160a01b03199081166001600160a01b0393841617909155600f92909255601080549092169216919091179055620005a5565b336001600160a01b03821603620002cd5760405162461bcd60e51b815260206004820152601760248201527f43616e6e6f74207472616e7366657220746f2073656c660000000000000000006044820152606401620001d2565b600c80546001600160a01b0319166001600160a01b03838116918217909255600b54604051919216907fed8889f560326eb138920d842192f0eb3dd22b4f139c87a2c57538e05bae127890600090a350565b8280548282559060005260206000209081019282156200036a579160200282015b828111156200036a5782518290620003599082620004d9565b509160200191906001019062000340565b50620003789291506200037c565b5090565b80821115620003785760006200039382826200039d565b506001016200037c565b508054620003ab9062000448565b6000825580601f10620003bc575050565b601f016020900490600052602060002090810190620003dc9190620003df565b50565b5b80821115620003785760008155600101620003e0565b600080604083850312156200040a57600080fd5b82516001600160a01b03811681146200042257600080fd5b6020939093015192949293505050565b634e487b7160e01b600052604160045260246000fd5b600181811c908216806200045d57607f821691505b6020821081036200047e57634e487b7160e01b600052602260045260246000fd5b50919050565b601f821115620004d4576000816000526020600020601f850160051c81016020861015620004af5750805b601f850160051c820191505b81811015620004d057828155600101620004bb565b5050505b505050565b81516001600160401b03811115620004f557620004f562000432565b6200050d8162000506845462000448565b8462000484565b602080601f8311600181146200054557600084156200052c5750858301515b600019600386901b1c1916600185901b178555620004d0565b600085815260208120601f198616915b82811015620005765788860151825594840194600190910190840162000555565b5085821015620005955787850151600019600388901b60f8161c191681555b5050505050600190811b01905550565b612d9180620005b56000396000f3fe608060405234801561001057600080fd5b50600436106101e55760003560e01c80636352211e1161010f5780639eccacf6116100a2578063c41a360a11610071578063c41a360a14610447578063c87b56dd14610470578063e985e9c514610483578063f2fde38b146104bf57600080fd5b80639eccacf6146103eb578063a22cb465146103fe578063b88d4fde14610411578063bf64db1d1461042457600080fd5b806379ba5097116100de57806379ba5097146103b75780638da5cb5b146103bf5780638ea98117146103d057806395d89b41146103e357600080fd5b80636352211e1461035557806365aad13a146103685780636e9e48ef1461037b57806370a08231146103a457600080fd5b806319e5760b116101875780632f745c59116101565780632f745c59146103095780633be311771461031c57806342842e0e1461032f5780634f6ccce71461034257600080fd5b806319e5760b146102b05780631fe543e3146102d057806323b872dd146102e35780632cd3285a146102f657600080fd5b8063081812fc116101c3578063081812fc14610255578063095ea7b31461028057806310bf84eb1461029557806318160ddd146102a857600080fd5b806301ffc9a7146101ea57806306fdde03146102125780630750b16314610227575b600080fd5b6101fd6101f8366004612184565b6104d2565b60405190151581526020015b60405180910390f35b61021a6104e3565b60405161020991906121f1565b610247610235366004612204565b60166020526000908152604090205481565b604051908152602001610209565b610268610263366004612204565b610575565b6040516001600160a01b039091168152602001610209565b61029361028e366004612239565b61059e565b005b61021a6102a3366004612204565b6105ad565b600854610247565b6102476102be366004612204565b60009081526016602052604090205490565b6102936102de366004612263565b610647565b6102936102f13660046122e2565b6106b5565b61021a610304366004612204565b610759565b610247610317366004612239565b6107fb565b61029361032a3660046123ca565b610860565b61029361033d3660046122e2565b610a51565b610247610350366004612204565b610a6c565b610268610363366004612204565b610ac5565b601054610268906001600160a01b031681565b610268610389366004612204565b6014602052600090815260409020546001600160a01b031681565b6102476103b2366004612477565b610ad0565b610293610b31565b600b546001600160a01b0316610268565b6102936103de366004612477565b610be6565b61021a610d0a565b600d54610268906001600160a01b031681565b61029361040c366004612492565b610d19565b61029361041f3660046124ce565b610d24565b610437610432366004612204565b610d3b565b604051610209949392919061253e565b610268610455366004612204565b6000908152601460205260409020546001600160a01b031690565b61021a61047e366004612204565b610f83565b6101fd610491366004612596565b6001600160a01b03918216600090815260056020908152604080832093909416825291909152205460ff1690565b6102936104cd366004612477565b610f8e565b60006104dd82610fa2565b92915050565b6060600080546104f2906125c9565b80601f016020809104026020016040519081016040528092919081815260200182805461051e906125c9565b801561056b5780601f106105405761010080835404028352916020019161056b565b820191906000526020600020905b81548152906001019060200180831161054e57829003601f168201915b5050505050905090565b600061058082610fe0565b506000828152600460205260409020546001600160a01b03166104dd565b6105a9828233611019565b5050565b601560205260009081526040902080546105c6906125c9565b80601f01602080910402602001604051908101604052809291908181526020018280546105f2906125c9565b801561063f5780601f106106145761010080835404028352916020019161063f565b820191906000526020600020905b81548152906001019060200180831161062257829003601f168201915b505050505081565b600d546001600160a01b031633146106a557600d546040517f1cf993f40000000000000000000000000000000000000000000000000000000081523360048201526001600160a01b0390911660248201526044015b60405180910390fd5b6106b0838383611026565b505050565b6001600160a01b0382166106df57604051633250574960e11b81526000600482015260240161069c565b60006106ec838333611220565b9050836001600160a01b0316816001600160a01b031614610753576040517f64283d7b0000000000000000000000000000000000000000000000000000000081526001600160a01b038086166004830152602482018490528216604482015260640161069c565b50505050565b6000818152601560205260409020805460609190610776906125c9565b80601f01602080910402602001604051908101604052809291908181526020018280546107a2906125c9565b80156107ef5780601f106107c4576101008083540402835291602001916107ef565b820191906000526020600020905b8154815290600101906020018083116107d257829003601f168201915b50505050509050919050565b600061080683610ad0565b82106108375760405163295f44f760e21b81526001600160a01b03841660048201526024810183905260440161069c565b506001600160a01b03919091166000908152600660209081526040808320938352929052205490565b600e80546000918261087183612619565b9190505590506108813382611235565b600081815260146020908152604080832080546001600160a01b031916331790558051608081018252888152808301889052808201879052606081018690528484526017909252909120815181906108d99082612682565b50602082015160018201906108ee9082612682565b50604082015160028201906109039082612682565b50606082015160038201906109189082612682565b5050600d546040805160c0810182526011548152600f5460208083019190915260125461ffff6401000000008204168385015263ffffffff808216606085015266010000000000009091041660808301528251908101909252600080835293506001600160a01b0390921691639b1c385e9160a08201906109989061124f565b8152506040518263ffffffff1660e01b81526004016109b79190612742565b6020604051808303816000875af11580156109d6573d6000803e3d6000fd5b505050506040513d601f19601f820116820180604052508101906109fa919061279f565b60008181526016602090815260409182902085905581513381529081018590529192507f4cc0a9c4a99ddc700de1af2c9f916a7cbfdb71f14801ccff94061ad1ef8a804091015b60405180910390a1505050505050565b6106b083838360405180602001604052806000815250610d24565b6000610a7760085490565b8210610aa05760405163295f44f760e21b8152600060048201526024810183905260440161069c565b60088281548110610ab357610ab36127b8565b90600052602060002001549050919050565b60006104dd82610fe0565b60006001600160a01b038216610b15576040517f89c62b640000000000000000000000000000000000000000000000000000000081526000600482015260240161069c565b506001600160a01b031660009081526003602052604090205490565b600c546001600160a01b03163314610b8b5760405162461bcd60e51b815260206004820152601660248201527f4d7573742062652070726f706f736564206f776e657200000000000000000000604482015260640161069c565b600b80546001600160a01b031980821633908117909355600c805490911690556040516001600160a01b03909116919082907f8be0079c531659141344cd1fd0a4f28419497f9722a3daafe3b4186f6b6457e090600090a350565b600b546001600160a01b03163314801590610c0c5750600d546001600160a01b03163314155b15610c765733610c24600b546001600160a01b031690565b600d546040517f061db9c10000000000000000000000000000000000000000000000000000000081526001600160a01b039384166004820152918316602483015291909116604482015260640161069c565b6001600160a01b038116610cb6576040517fd92e233d00000000000000000000000000000000000000000000000000000000815260040160405180910390fd5b600d80546001600160a01b0319166001600160a01b0383169081179091556040519081527fd1a6a14209a385a964d036e404cb5cfb71f4000cdb03c9366292430787261be69060200160405180910390a150565b6060600180546104f2906125c9565b6105a93383836112d5565b610d2f8484846106b5565b6107538484848461138d565b601760205260009081526040902080548190610d56906125c9565b80601f0160208091040260200160405190810160405280929190818152602001828054610d82906125c9565b8015610dcf5780601f10610da457610100808354040283529160200191610dcf565b820191906000526020600020905b815481529060010190602001808311610db257829003601f168201915b505050505090806001018054610de4906125c9565b80601f0160208091040260200160405190810160405280929190818152602001828054610e10906125c9565b8015610e5d5780601f10610e3257610100808354040283529160200191610e5d565b820191906000526020600020905b815481529060010190602001808311610e4057829003601f168201915b505050505090806002018054610e72906125c9565b80601f0160208091040260200160405190810160405280929190818152602001828054610e9e906125c9565b8015610eeb5780601f10610ec057610100808354040283529160200191610eeb565b820191906000526020600020905b815481529060010190602001808311610ece57829003601f168201915b505050505090806003018054610f00906125c9565b80601f0160208091040260200160405190810160405280929190818152602001828054610f2c906125c9565b8015610f795780601f10610f4e57610100808354040283529160200191610f79565b820191906000526020600020905b815481529060010190602001808311610f5c57829003601f168201915b5050505050905084565b60606104dd826114b6565b610f966115bf565b610f9f8161161b565b50565b60006001600160e01b031982167f490649060000000000000000000000000000000000000000000000000000000014806104dd57506104dd826116c5565b6000818152600260205260408120546001600160a01b0316806104dd57604051637e27328960e01b81526004810184905260240161069c565b6106b08383836001611703565b600060648383600081811061103d5761103d6127b8565b9050602002013561104e91906127e4565b600085815260166020526040902054909150811580159061106f5750603282105b156110b1576013600081548110611088576110886127b8565b6000918252602080832084845260159091526040909220916110ab9101826127f8565b50611168565b603282101580156110c25750605082105b156110db576013600181548110611088576110886127b8565b605082101580156110ec5750605f82105b15611105576013600281548110611088576110886127b8565b605f82101580156111165750606382105b1561112f576013600381548110611088576110886127b8565b6013600481548110611143576111436127b8565b6000918252602080832084845260159091526040909220916111669101826127f8565b505b60008181526017602090815260408083206015835281842091516111b4936111a093600184019260028501926003860192910161293e565b604051602081830303815290604052611841565b90506111df82826040516020016111cb9190612b3f565b6040516020818303038152906040526119a1565b6000828152601560205260409081902090517fc8f7a0da23ca59c016a106a40d4efc76ad5404faf11012044ac455ef02cf002a91610a419133918691612b84565b600061122d8484846119f1565b949350505050565b6105a9828260405180602001604052806000815250611abe565b60607f92fd13387c7fe7befbc38d303d6468778fb9731bc4583f17d92989c6fcfdeaaa8260405160240161128891511515815260200190565b60408051601f198184030181529190526020810180517bffffffffffffffffffffffffffffffffffffffffffffffffffffffff166001600160e01b03199093169290921790915292915050565b6001600160a01b038216611320576040517f5b08ba180000000000000000000000000000000000000000000000000000000081526001600160a01b038316600482015260240161069c565b6001600160a01b03838116600081815260056020908152604080832094871680845294825291829020805460ff191686151590811790915591519182527f17307eab39ab6107e8899845ad3d59bd9653f200f220920489ca2b5937696c31910160405180910390a3505050565b6001600160a01b0383163b1561075357604051630a85bd0160e11b81526001600160a01b0384169063150b7a02906113cf903390889087908790600401612c2c565b6020604051808303816000875af192505050801561140a575060408051601f3d908101601f1916820190925261140791810190612c68565b60015b611473573d808015611438576040519150601f19603f3d011682016040523d82523d6000602084013e61143d565b606091505b50805160000361146b57604051633250574960e11b81526001600160a01b038516600482015260240161069c565b805181602001fd5b6001600160e01b03198116630a85bd0160e11b146114af57604051633250574960e11b81526001600160a01b038516600482015260240161069c565b5050505050565b60606114c182610fe0565b506000828152600a6020526040812080546114db906125c9565b80601f0160208091040260200160405190810160405280929190818152602001828054611507906125c9565b80156115545780601f1061152957610100808354040283529160200191611554565b820191906000526020600020905b81548152906001019060200180831161153757829003601f168201915b50505050509050600061157260408051602081019091526000815290565b90508051600003611584575092915050565b8151156115b657808260405160200161159e929190612c85565b60405160208183030381529060405292505050919050565b61122d84611ad5565b600b546001600160a01b031633146116195760405162461bcd60e51b815260206004820152601660248201527f4f6e6c792063616c6c61626c65206279206f776e657200000000000000000000604482015260640161069c565b565b336001600160a01b038216036116735760405162461bcd60e51b815260206004820152601760248201527f43616e6e6f74207472616e7366657220746f2073656c66000000000000000000604482015260640161069c565b600c80546001600160a01b0319166001600160a01b03838116918217909255600b54604051919216907fed8889f560326eb138920d842192f0eb3dd22b4f139c87a2c57538e05bae127890600090a350565b60006001600160e01b031982167f780e9d630000000000000000000000000000000000000000000000000000000014806104dd57506104dd82611b4a565b808061171757506001600160a01b03821615155b1561181157600061172784610fe0565b90506001600160a01b038316158015906117535750826001600160a01b0316816001600160a01b031614155b801561178557506001600160a01b0380821660009081526005602090815260408083209387168352929052205460ff16155b156117c7576040517fa9fbf51f0000000000000000000000000000000000000000000000000000000081526001600160a01b038416600482015260240161069c565b811561180f5783856001600160a01b0316826001600160a01b03167f8c5be1e5ebec7d5bd14f71427d1e84f3dd0314c0f7b2291e5b200ac8c7c3b92560405160405180910390a45b505b5050600090815260046020526040902080546001600160a01b0319166001600160a01b0392909216919091179055565b6060815160000361186057505060408051602081019091526000815290565b6000604051806060016040528060408152602001612d1c604091399050600060038451600261188f9190612cb4565b6118999190612cc7565b6118a4906004612cdb565b67ffffffffffffffff8111156118bc576118bc61231e565b6040519080825280601f01601f1916602001820160405280156118e6576020820181803683370190505b50905060018201602082018586518701602081018051600082525b8284101561195c576003840193508351603f8160121c168701518653600186019550603f81600c1c168701518653600186019550603f8160061c168701518653600186019550603f8116870151865350600185019450611901565b905250508551600390066001811461197b576002811461198e57611996565b603d6001830353603d6002830353611996565b603d60018303535b509195945050505050565b6000828152600a602052604090206119b98282612682565b506040518281527ff8e1a15aba9398e019f0b49df1a4fde98ee17ae345cb5f6b5e2c27f5033e8ce79060200160405180910390a15050565b6000806119ff858585611be5565b90506001600160a01b038116611a5c57611a5784600880546000838152600960205260408120829055600182018355919091527ff3f7a9fe364faab93b216da50a3214154f22a0a2b415b23a84c8169e8b636ee30155565b611a7f565b846001600160a01b0316816001600160a01b031614611a7f57611a7f8185611cde565b6001600160a01b038516611a9b57611a9684611d6f565b61122d565b846001600160a01b0316816001600160a01b03161461122d5761122d8585611e1e565b611ac88383611e6e565b6106b0600084848461138d565b6060611ae082610fe0565b506000611af860408051602081019091526000815290565b90506000815111611b185760405180602001604052806000815250611b43565b80611b2284611eec565b604051602001611b33929190612c85565b6040516020818303038152906040525b9392505050565b60006001600160e01b031982167f80ac58cd000000000000000000000000000000000000000000000000000000001480611bad57506001600160e01b031982167f5b5e139f00000000000000000000000000000000000000000000000000000000145b806104dd57507f01ffc9a7000000000000000000000000000000000000000000000000000000006001600160e01b03198316146104dd565b6000828152600260205260408120546001600160a01b0390811690831615611c1257611c12818486611f8c565b6001600160a01b03811615611c5057611c2f600085600080611703565b6001600160a01b038116600090815260036020526040902080546000190190555b6001600160a01b03851615611c7f576001600160a01b0385166000908152600360205260409020805460010190555b60008481526002602052604080822080546001600160a01b0319166001600160a01b0389811691821790925591518793918516917fddf252ad1be2c89b69c2b068fc378daa952ba7f163c4a11628f55a4df523b3ef91a4949350505050565b6000611ce983610ad0565b600083815260076020526040902054909150808214611d3c576001600160a01b03841660009081526006602090815260408083208584528252808320548484528184208190558352600790915290208190555b5060009182526007602090815260408084208490556001600160a01b039094168352600681528383209183525290812055565b600854600090611d8190600190612cf2565b60008381526009602052604081205460088054939450909284908110611da957611da96127b8565b906000526020600020015490508060088381548110611dca57611dca6127b8565b6000918252602080832090910192909255828152600990915260408082208490558582528120556008805480611e0257611e02612d05565b6001900381819060005260206000200160009055905550505050565b60006001611e2b84610ad0565b611e359190612cf2565b6001600160a01b039093166000908152600660209081526040808320868452825280832085905593825260079052919091209190915550565b6001600160a01b038216611e9857604051633250574960e11b81526000600482015260240161069c565b6000611ea683836000611220565b90506001600160a01b038116156106b0576040517f73c6ac6e0000000000000000000000000000000000000000000000000000000081526000600482015260240161069c565b60606000611ef983612009565b600101905060008167ffffffffffffffff811115611f1957611f1961231e565b6040519080825280601f01601f191660200182016040528015611f43576020820181803683370190505b5090508181016020015b600019017f3031323334353637383961626364656600000000000000000000000000000000600a86061a8153600a8504945084611f4d57509392505050565b611f978383836120eb565b6106b0576001600160a01b038316611fc557604051637e27328960e01b81526004810182905260240161069c565b6040517f177e802f0000000000000000000000000000000000000000000000000000000081526001600160a01b03831660048201526024810182905260440161069c565b6000807a184f03e93ff9f4daa797ed6e38ed64bf6a1f0100000000000000008310612052577a184f03e93ff9f4daa797ed6e38ed64bf6a1f010000000000000000830492506040015b6d04ee2d6d415b85acef8100000000831061207e576d04ee2d6d415b85acef8100000000830492506020015b662386f26fc10000831061209c57662386f26fc10000830492506010015b6305f5e10083106120b4576305f5e100830492506008015b61271083106120c857612710830492506004015b606483106120da576064830492506002015b600a83106104dd5760010192915050565b60006001600160a01b0383161580159061122d5750826001600160a01b0316846001600160a01b0316148061214557506001600160a01b0380851660009081526005602090815260408083209387168352929052205460ff165b8061122d5750506000908152600460205260409020546001600160a01b03908116911614919050565b6001600160e01b031981168114610f9f57600080fd5b60006020828403121561219657600080fd5b8135611b438161216e565b60005b838110156121bc5781810151838201526020016121a4565b50506000910152565b600081518084526121dd8160208601602086016121a1565b601f01601f19169290920160200192915050565b602081526000611b4360208301846121c5565b60006020828403121561221657600080fd5b5035919050565b80356001600160a01b038116811461223457600080fd5b919050565b6000806040838503121561224c57600080fd5b6122558361221d565b946020939093013593505050565b60008060006040848603121561227857600080fd5b83359250602084013567ffffffffffffffff8082111561229757600080fd5b818601915086601f8301126122ab57600080fd5b8135818111156122ba57600080fd5b8760208260051b85010111156122cf57600080fd5b6020830194508093505050509250925092565b6000806000606084860312156122f757600080fd5b6123008461221d565b925061230e6020850161221d565b9150604084013590509250925092565b634e487b7160e01b600052604160045260246000fd5b600067ffffffffffffffff8084111561234f5761234f61231e565b604051601f8501601f19908116603f011681019082821181831017156123775761237761231e565b8160405280935085815286868601111561239057600080fd5b858560208301376000602087830101525050509392505050565b600082601f8301126123bb57600080fd5b611b4383833560208501612334565b600080600080608085870312156123e057600080fd5b843567ffffffffffffffff808211156123f857600080fd5b612404888389016123aa565b9550602087013591508082111561241a57600080fd5b612426888389016123aa565b9450604087013591508082111561243c57600080fd5b612448888389016123aa565b9350606087013591508082111561245e57600080fd5b5061246b878288016123aa565b91505092959194509250565b60006020828403121561248957600080fd5b611b438261221d565b600080604083850312156124a557600080fd5b6124ae8361221d565b9150602083013580151581146124c357600080fd5b809150509250929050565b600080600080608085870312156124e457600080fd5b6124ed8561221d565b93506124fb6020860161221d565b925060408501359150606085013567ffffffffffffffff81111561251e57600080fd5b8501601f8101871361252f57600080fd5b61246b87823560208401612334565b60808152600061255160808301876121c5565b828103602084015261256381876121c5565b9050828103604084015261257781866121c5565b9050828103606084015261258b81856121c5565b979650505050505050565b600080604083850312156125a957600080fd5b6125b28361221d565b91506125c06020840161221d565b90509250929050565b600181811c908216806125dd57607f821691505b6020821081036125fd57634e487b7160e01b600052602260045260246000fd5b50919050565b634e487b7160e01b600052601160045260246000fd5b60006001820161262b5761262b612603565b5060010190565b601f8211156106b0576000816000526020600020601f850160051c8101602086101561265b5750805b601f850160051c820191505b8181101561267a57828155600101612667565b505050505050565b815167ffffffffffffffff81111561269c5761269c61231e565b6126b0816126aa84546125c9565b84612632565b602080601f8311600181146126e557600084156126cd5750858301515b600019600386901b1c1916600185901b17855561267a565b600085815260208120601f198616915b82811015612714578886015182559484019460019091019084016126f5565b50858210156127325787850151600019600388901b60f8161c191681555b5050505050600190811b01905550565b60208152815160208201526020820151604082015261ffff60408301511660608201526000606083015163ffffffff80821660808501528060808601511660a0850152505060a083015160c08084015261122d60e08401826121c5565b6000602082840312156127b157600080fd5b5051919050565b634e487b7160e01b600052603260045260246000fd5b634e487b7160e01b600052601260045260246000fd5b6000826127f3576127f36127ce565b500690565b818103612803575050565b61280d82546125c9565b67ffffffffffffffff8111156128255761282561231e565b612833816126aa84546125c9565b6000601f821160018114612867576000831561284f5750848201545b600019600385901b1c1916600184901b1784556114af565b600085815260209020601f19841690600086815260209020845b838110156128a15782860154825560019586019590910190602001612881565b50858310156127325793015460001960f8600387901b161c19169092555050600190811b01905550565b600081546128d8816125c9565b600182811680156128f0576001811461290557612934565b60ff1984168752821515830287019450612934565b8560005260208060002060005b8581101561292b5781548a820152908401908201612912565b50505082870194505b5050505092915050565b7f7b226e616d65223a20220000000000000000000000000000000000000000000081526000612970600a8301886128cb565b7f222c0000000000000000000000000000000000000000000000000000000000008082527f226465736372697074696f6e223a20220000000000000000000000000000000060028301526129c760128301896128cb565b91508082527f22696d616765223a20220000000000000000000000000000000000000000000060028301526129ff600c8301886128cb565b9081527f2261747472696275746573223a205b000000000000000000000000000000000060028201527f7b2274726169745f74797065223a2022706572736f6e616c697479222c000000601182015269113b30b63ab2911d101160b11b602e8201529050612a7060388201866128cb565b7f227d2c000000000000000000000000000000000000000000000000000000000081527f7b2274726169745f74797065223a20226c75636b795f6c6576656c222c000000600382015269113b30b63ab2911d101160b11b60208201529050612b33612b0a612ae1602a8401876128cb565b7f227d000000000000000000000000000000000000000000000000000000000000815260020190565b7f5d7d000000000000000000000000000000000000000000000000000000000000815260020190565b98975050505050505050565b7f646174613a6170706c69636174696f6e2f6a736f6e3b6261736536342c000000815260008251612b7781601d8501602087016121a1565b91909101601d0192915050565b6001600160a01b0384168152600060208460208401526060604084015260008454612bae816125c9565b8060608701526080600180841660008114612bd05760018114612bec57612c1c565b60ff19851660808a0152608084151560051b8a01019550612c1c565b89600052602060002060005b85811015612c135781548b8201860152908301908801612bf8565b8a016080019650505b50939a9950505050505050505050565b60006001600160a01b03808716835280861660208401525083604083015260806060830152612c5e60808301846121c5565b9695505050505050565b600060208284031215612c7a57600080fd5b8151611b438161216e565b60008351612c978184602088016121a1565b835190830190612cab8183602088016121a1565b01949350505050565b808201808211156104dd576104dd612603565b600082612cd657612cd66127ce565b500490565b80820281158282048414176104dd576104dd612603565b818103818111156104dd576104dd612603565b634e487b7160e01b600052603160045260246000fdfe4142434445464748494a4b4c4d4e4f505152535455565758595a6162636465666768696a6b6c6d6e6f707172737475767778797a303132333435363738392b2fa2646970667358221220632d849785855dfe94f87607da48d4b369033fd96f38ab26845b8ffe3e200b5964736f6c63430008180033",
  "devdoc": {
    "errors": {
      "ERC721EnumerableForbiddenBatchMint()": [
        {
          "details": "Batch mint is not allowed."
        }
      ],
      "ERC721IncorrectOwner(address,uint256,address)": [
        {
          "details": "Indicates an error related to the ownership over a particular token. Used in transfers.",
          "params": {
            "owner": "Address of the current owner of a token.",
            "sender": "Address whose tokens are being transferred.",
            "tokenId": "Identifier number of a token."
          }
        }
      ],
      "ERC721InsufficientApproval(address,uint256)": [
        {
          "details": "Indicates a failure with the `operator`s approval. Used in transfers.",
          "params": {
            "operator": "Address that may be allowed to operate on tokens without being their owner.",
            "tokenId": "Identifier number of a token."
          }
        }
      ],
      "ERC721InvalidApprover(address)": [
        {
          "details": "Indicates a failure with the `approver` of a token to be approved. Used in approvals.",
          "params": {
            "approver": "Address initiating an approval operation."
          }
        }
      ],
      "ERC721InvalidOperator(address)": [
        {
          "details": "Indicates a failure with the `operator` to be approved. Used in approvals.",
          "params": {
            "operator": "Address that may be allowed to operate on tokens without being their owner."
          }
        }
      ],
      "ERC721InvalidOwner(address)": [
        {
          "details": "Indicates that an address can't be an owner. For example, `address(0)` is a forbidden owner in EIP-20. Used in balance queries.",
          "params": {
            "owner": "Address of the current owner of a token."
          }
        }
      ],
      "ERC721InvalidReceiver(address)": [
        {
          "details": "Indicates a failure with the token `receiver`. Used in transfers.",
          "params": {
            "receiver": "Address to which tokens are being transferred."
          }
        }
      ],
      "ERC721InvalidSender(address)": [
        {
          "details": "Indicates a failure with the token `sender`. Used in transfers.",
          "params": {
            "sender": "Address whose tokens are being transferred."
          }
        }
      ],
      "ERC721NonexistentToken(uint256)": [
        {
          "details": "Indicates a `tokenId` whose `owner` is the zero address.",
          "params": {
            "tokenId": "Identifier number of a token."
          }
        }
      ],
      "ERC721OutOfBoundsIndex(address,uint256)": [
        {
          "details": "An `owner`'s token query was out of bounds for `index`. NOTE: The owner being `address(0)` indicates a global out of bounds index."
        }
      ]
    },
    "events": {
      "Approval(address,address,uint256)": {
        "details": "Emitted when `owner` enables `approved` to manage the `tokenId` token."
      },
      "ApprovalForAll(address,address,bool)": {
        "details": "Emitted when `owner` enables or disables (`approved`) `operator` to manage all of its assets."
      },
      "BatchMetadataUpdate(uint256,uint256)": {
        "details": "This event emits when the metadata of a range of tokens is changed. So that the third-party platforms such as NFT market could timely update the images and related attributes of the NFTs."
      },
      "MetadataUpdate(uint256)": {
        "details": "This event emits when the metadata of a token is changed. So that the third-party platforms such as NFT market could timely update the images and related attributes of the NFT."
      },
      "Transfer(address,address,uint256)": {
        "details": "Emitted when `tokenId` token is transferred from `from` to `to`."
      }
    },
    "kind": "dev",
    "methods": {
      "approve(address,uint256)": {
        "details": "See {IERC721-approve}."
      },
      "balanceOf(address)": {
        "details": "See {IERC721-balanceOf}."
      },
      "getApproved(uint256)": {
        "details": "See {IERC721-getApproved}."
      },
      "isApprovedForAll(address,address)": {
        "details": "See {IERC721-isApprovedForAll}."
      },
      "name()": {
        "details": "See {IERC721Metadata-name}."
      },
      "ownerOf(uint256)": {
        "details": "See {IERC721-ownerOf}."
      },
      "safeTransferFrom(address,address,uint256)": {
        "details": "See {IERC721-safeTransferFrom}."
      },
      "safeTransferFrom(address,address,uint256,bytes)": {
        "details": "See {IERC721-safeTransferFrom}."
      },
      "setApprovalForAll(address,bool)": {
        "details": "See {IERC721-setApprovalForAll}."
      },
      "symbol()": {
        "details": "See {IERC721Metadata-symbol}."
      },
      "tokenByIndex(uint256)": {
        "details": "See {IERC721Enumerable-tokenByIndex}."
      },
      "tokenOfOwnerByIndex(address,uint256)": {
        "details": "See {IERC721Enumerable-tokenOfOwnerByIndex}."
      },
      "totalSupply()": {
        "details": "See {IERC721Enumerable-totalSupply}."
      },
      "transferFrom(address,address,uint256)": {
        "details": "See {IERC721-transferFrom}."
      }
    },
    "version": 1
  },
  "userdoc": {
    "kind": "user",
    "methods": {
      "acceptOwnership()": {
        "notice": "Allows an ownership transfer to be completed by the recipient."
      },
      "owner()": {
        "notice": "Get the current owner"
      },
      "setCoordinator(address)": {
        "notice": "Sets the VRF Coordinator addressThis method should only be callable by the coordinator or contract owner"
      },
      "transferOwnership(address)": {
        "notice": "Allows an owner to begin transferring ownership to a new address."
      }
    },
    "version": 1
  },
  "storageLayout": {
    "storage": [
      {
        "astId": 3656,
        "contract": "contracts/LuckyDoll.sol:LuckyDoll",
        "label": "_name",
        "offset": 0,
        "slot": "0",
        "type": "t_string_storage"
      },
      {
        "astId": 3658,
        "contract": "contracts/LuckyDoll.sol:LuckyDoll",
        "label": "_symbol",
        "offset": 0,
        "slot": "1",
        "type": "t_string_storage"
      },
      {
        "astId": 3662,
        "contract": "contracts/LuckyDoll.sol:LuckyDoll",
        "label": "_owners",
        "offset": 0,
        "slot": "2",
        "type": "t_mapping(t_uint256,t_address)"
      },
      {
        "astId": 3666,
        "contract": "contracts/LuckyDoll.sol:LuckyDoll",
        "label": "_balances",
        "offset": 0,
        "slot": "3",
        "type": "t_mapping(t_address,t_uint256)"
      },
      {
        "astId": 3670,
        "contract": "contracts/LuckyDoll.sol:LuckyDoll",
        "label": "_tokenApprovals",
        "offset": 0,
        "slot": "4",
        "type": "t_mapping(t_uint256,t_address)"
      },
      {
        "astId": 3676,
        "contract": "contracts/LuckyDoll.sol:LuckyDoll",
        "label": "_operatorApprovals",
        "offset": 0,
        "slot": "5",
        "type": "t_mapping(t_address,t_mapping(t_address,t_bool))"
      },
      {
        "astId": 4786,
        "contract": "contracts/LuckyDoll.sol:LuckyDoll",
        "label": "_ownedTokens",
        "offset": 0,
        "slot": "6",
        "type": "t_mapping(t_address,t_mapping(t_uint256,t_uint256))"
      },
      {
        "astId": 4790,
        "contract": "contracts/LuckyDoll.sol:LuckyDoll",
        "label": "_ownedTokensIndex",
        "offset": 0,
        "slot": "7",
        "type": "t_mapping(t_uint256,t_uint256)"
      },
      {
        "astId": 4793,
        "contract": "contracts/LuckyDoll.sol:LuckyDoll",
        "label": "_allTokens",
        "offset": 0,
        "slot": "8",
        "type": "t_array(t_uint256)dyn_storage"
      },
      {
        "astId": 4797,
        "contract": "contracts/LuckyDoll.sol:LuckyDoll",
        "label": "_allTokensIndex",
        "offset": 0,
        "slot": "9",
        "type": "t_mapping(t_uint256,t_uint256)"
      },
      {
        "astId": 5179,
        "contract": "contracts/LuckyDoll.sol:LuckyDoll",
        "label": "_tokenURIs",
        "offset": 0,
        "slot": "10",
        "type": "t_mapping(t_uint256,t_string_storage)"
      },
      {
        "astId": 29,
        "contract": "contracts/LuckyDoll.sol:LuckyDoll",
        "label": "s_owner",
        "offset": 0,
        "slot": "11",
        "type": "t_address"
      },
      {
        "astId": 31,
        "contract": "contracts/LuckyDoll.sol:LuckyDoll",
        "label": "s_pendingOwner",
        "offset": 0,
        "slot": "12",
        "type": "t_address"
      },
      {
        "astId": 2332,
        "contract": "contracts/LuckyDoll.sol:LuckyDoll",
        "label": "s_vrfCoordinator",
        "offset": 0,
        "slot": "13",
        "type": "t_contract(IVRFCoordinatorV2Plus)2481"
      },
      {
        "astId": 6890,
        "contract": "contracts/LuckyDoll.sol:LuckyDoll",
        "label": "_nextTokenId",
        "offset": 0,
        "slot": "14",
        "type": "t_uint256"
      },
      {
        "astId": 6892,
        "contract": "contracts/LuckyDoll.sol:LuckyDoll",
        "label": "s_subscriptionId",
        "offset": 0,
        "slot": "15",
        "type": "t_uint256"
      },
      {
        "astId": 6894,
        "contract": "contracts/LuckyDoll.sol:LuckyDoll",
        "label": "s_vrfCoordinatorV2Plus",
        "offset": 0,
        "slot": "16",
        "type": "t_address"
      },
      {
        "astId": 6897,
        "contract": "contracts/LuckyDoll.sol:LuckyDoll",
        "label": "keyHash",
        "offset": 0,
        "slot": "17",
        "type": "t_bytes32"
      },
      {
        "astId": 6900,
        "contract": "contracts/LuckyDoll.sol:LuckyDoll",
        "label": "callbackGasLimit",
        "offset": 0,
        "slot": "18",
        "type": "t_uint32"
      },
      {
        "astId": 6903,
        "contract": "contracts/LuckyDoll.sol:LuckyDoll",
        "label": "requestConfirmations",
        "offset": 4,
        "slot": "18",
        "type": "t_uint16"
      },
      {
        "astId": 6906,
        "contract": "contracts/LuckyDoll.sol:LuckyDoll",
        "label": "numWords",
        "offset": 6,
        "slot": "18",
        "type": "t_uint32"
      },
      {
        "astId": 6924,
        "contract": "contracts/LuckyDoll.sol:LuckyDoll",
        "label": "luckyLevel",
        "offset": 0,
        "slot": "19",
        "type": "t_array(t_string_storage)dyn_storage"
      },
      {
        "astId": 6928,
        "contract": "contracts/LuckyDoll.sol:LuckyDoll",
        "label": "tokenIdToOwner",
        "offset": 0,
        "slot": "20",
        "type": "t_mapping(t_uint256,t_address)"
      },
      {
        "astId": 6932,
        "contract": "contracts/LuckyDoll.sol:LuckyDoll",
        "label": "tokenIdOfLuckyLevel",
        "offset": 0,
        "slot": "21",
        "type": "t_mapping(t_uint256,t_string_storage)"
      },
      {
        "astId": 6936,
        "contract": "contracts/LuckyDoll.sol:LuckyDoll",
        "label": "requestIdToTokenId",
        "offset": 0,
        "slot": "22",
        "type": "t_mapping(t_uint256,t_uint256)"
      },
      {
        "astId": 6941,
        "contract": "contracts/LuckyDoll.sol:LuckyDoll",
        "label": "tokenIdToMetadata",
        "offset": 0,
        "slot": "23",
        "type": "t_mapping(t_uint256,t_struct(Metadata)6915_storage)"
      }
    ],
    "types": {
      "t_address": {
        "encoding": "inplace",
        "label": "address",
        "numberOfBytes": "20"
      },
      "t_array(t_string_storage)dyn_storage": {
        "base": "t_string_storage",
        "encoding": "dynamic_array",
        "label": "string[]",
        "numberOfBytes": "32"
      },
      "t_array(t_uint256)dyn_storage": {
        "base": "t_uint256",
        "encoding": "dynamic_array",
        "label": "uint256[]",
        "numberOfBytes": "32"
      },
      "t_bool": {
        "encoding": "inplace",
        "label": "bool",
        "numberOfBytes": "1"
      },
      "t_bytes32": {
        "encoding": "inplace",
        "label": "bytes32",
        "numberOfBytes": "32"
      },
      "t_contract(IVRFCoordinatorV2Plus)2481": {
        "encoding": "inplace",
        "label": "contract IVRFCoordinatorV2Plus",
        "numberOfBytes": "20"
      },
      "t_mapping(t_address,t_bool)": {
        "encoding": "mapping",
        "key": "t_address",
        "label": "mapping(address => bool)",
        "numberOfBytes": "32",
        "value": "t_bool"
      },
      "t_mapping(t_address,t_mapping(t_address,t_bool))": {
        "encoding": "mapping",
        "key": "t_address",
        "label": "mapping(address => mapping(address => bool))",
        "numberOfBytes": "32",
        "value": "t_mapping(t_address,t_bool)"
      },
      "t_mapping(t_address,t_mapping(t_uint256,t_uint256))": {
        "encoding": "mapping",
        "key": "t_address",
        "label": "mapping(address => mapping(uint256 => uint256))",
        "numberOfBytes": "32",
        "value": "t_mapping(t_uint256,t_uint256)"
      },
      "t_mapping(t_address,t_uint256)": {
        "encoding": "mapping",
        "key": "t_address",
        "label": "mapping(address => uint256)",
        "numberOfBytes": "32",
        "value": "t_uint256"
      },
      "t_mapping(t_uint256,t_address)": {
        "encoding": "mapping",
        "key": "t_uint256",
        "label": "mapping(uint256 => address)",
        "numberOfBytes": "32",
        "value": "t_address"
      },
      "t_mapping(t_uint256,t_string_storage)": {
        "encoding": "mapping",
        "key": "t_uint256",
        "label": "mapping(uint256 => string)",
        "numberOfBytes": "32",
        "value": "t_string_storage"
      },
      "t_mapping(t_uint256,t_struct(Metadata)6915_storage)": {
        "encoding": "mapping",
        "key": "t_uint256",
        "label": "mapping(uint256 => struct LuckyDoll.Metadata)",
        "numberOfBytes": "32",
        "value": "t_struct(Metadata)6915_storage"
      },
      "t_mapping(t_uint256,t_uint256)": {
        "encoding": "mapping",
        "key": "t_uint256",
        "label": "mapping(uint256 => uint256)",
        "numberOfBytes": "32",
        "value": "t_uint256"
      },
      "t_string_storage": {
        "encoding": "bytes",
        "label": "string",
        "numberOfBytes": "32"
      },
      "t_struct(Metadata)6915_storage": {
        "encoding": "inplace",
        "label": "struct LuckyDoll.Metadata",
        "members": [
          {
            "astId": 6908,
            "contract": "contracts/LuckyDoll.sol:LuckyDoll",
            "label": "name",
            "offset": 0,
            "slot": "0",
            "type": "t_string_storage"
          },
          {
            "astId": 6910,
            "contract": "contracts/LuckyDoll.sol:LuckyDoll",
            "label": "description",
            "offset": 0,
            "slot": "1",
            "type": "t_string_storage"
          },
          {
            "astId": 6912,
            "contract": "contracts/LuckyDoll.sol:LuckyDoll",
            "label": "imageUri",
            "offset": 0,
            "slot": "2",
            "type": "t_string_storage"
          },
          {
            "astId": 6914,
            "contract": "contracts/LuckyDoll.sol:LuckyDoll",
            "label": "category",
            "offset": 0,
            "slot": "3",
            "type": "t_string_storage"
          }
        ],
        "numberOfBytes": "128"
      },
      "t_uint16": {
        "encoding": "inplace",
        "label": "uint16",
        "numberOfBytes": "2"
      },
      "t_uint256": {
        "encoding": "inplace",
        "label": "uint256",
        "numberOfBytes": "32"
      },
      "t_uint32": {
        "encoding": "inplace",
        "label": "uint32",
        "numberOfBytes": "4"
      }
    }
  }
}